:0200000047288F
:100006008312031308140230FB003830FC00AD30B5
:10001600FD00FD0B0C28FC0B0C28FB0B0C28081014
:100026009C30FC00D730FD00FD0B1728FC0B172871
:020036000800C0
:10003800831203130814D030FC00C930FD00FD0BF7
:100048002328FC0B23280000000008106830FC005F
:10005800E430FD00FD0B2E28FC0B2E2800000800C4
:060068001C201C20080012
:10006E0003201C200230FB008630FC009930FD007E
:10007E00FD0B3F28FC0B3F28FB0B3F281C200800E4
:10008E008316031308108814081583120810881C91
:10009E0054283420881C54285128081D5A283720EB
:0A00AE00081D5A2857284E285B2829
:04400E00F22F000786
:00000001FF
